{
  "_format": "hh-sol-artifact-1",
  "contractName": "TemporalLoot",
  "sourceName": "contracts/TemporalLoot.sol",
  "abi": [
    {
      "inputs": [],
      "stateMutability": "nonpayable",
      "type": "constructor"
    },
    {
      "anonymous": false,
      "inputs": [
        {
          "indexed": true,
          "internalType": "address",
          "name": "owner",
          "type": "address"
        },
        {
          "indexed": true,
          "internalType": "address",
          "name": "approved",
          "type": "address"
        },
        {
          "indexed": true,
          "internalType": "uint256",
          "name": "tokenId",
          "type": "uint256"
        }
      ],
      "name": "Approval",
      "type": "event"
    },
    {
      "anonymous": false,
      "inputs": [
        {
          "indexed": true,
          "internalType": "address",
          "name": "owner",
          "type": "address"
        },
        {
          "indexed": true,
          "internalType": "address",
          "name": "operator",
          "type": "address"
        },
        {
          "indexed": false,
          "internalType": "bool",
          "name": "approved",
          "type": "bool"
        }
      ],
      "name": "ApprovalForAll",
      "type": "event"
    },
    {
      "anonymous": false,
      "inputs": [
        {
          "indexed": true,
          "internalType": "address",
          "name": "previousOwner",
          "type": "address"
        },
        {
          "indexed": true,
          "internalType": "address",
          "name": "newOwner",
          "type": "address"
        }
      ],
      "name": "OwnershipTransferred",
      "type": "event"
    },
    {
      "anonymous": false,
      "inputs": [
        {
          "indexed": true,
          "internalType": "address",
          "name": "from",
          "type": "address"
        },
        {
          "indexed": true,
          "internalType": "address",
          "name": "to",
          "type": "address"
        },
        {
          "indexed": true,
          "internalType": "uint256",
          "name": "tokenId",
          "type": "uint256"
        }
      ],
      "name": "Transfer",
      "type": "event"
    },
    {
      "inputs": [
        {
          "internalType": "address",
          "name": "to",
          "type": "address"
        },
        {
          "internalType": "uint256",
          "name": "tokenId",
          "type": "uint256"
        }
      ],
      "name": "approve",
      "outputs": [],
      "stateMutability": "nonpayable",
      "type": "function"
    },
    {
      "inputs": [
        {
          "internalType": "address",
          "name": "owner",
          "type": "address"
        }
      ],
      "name": "balanceOf",
      "outputs": [
        {
          "internalType": "uint256",
          "name": "",
          "type": "uint256"
        }
      ],
      "stateMutability": "view",
      "type": "function"
    },
    {
      "inputs": [
        {
          "internalType": "uint256",
          "name": "tokenId",
          "type": "uint256"
        }
      ],
      "name": "claim",
      "outputs": [],
      "stateMutability": "nonpayable",
      "type": "function"
    },
    {
      "inputs": [
        {
          "internalType": "uint256",
          "name": "tokenId",
          "type": "uint256"
        }
      ],
      "name": "getApproved",
      "outputs": [
        {
          "internalType": "address",
          "name": "",
          "type": "address"
        }
      ],
      "stateMutability": "view",
      "type": "function"
    },
    {
      "inputs": [
        {
          "internalType": "uint256",
          "name": "tokenId",
          "type": "uint256"
        }
      ],
      "name": "getChest",
      "outputs": [
        {
          "internalType": "string",
          "name": "",
          "type": "string"
        }
      ],
      "stateMutability": "view",
      "type": "function"
    },
    {
      "inputs": [
        {
          "internalType": "uint256",
          "name": "tokenId",
          "type": "uint256"
        }
      ],
      "name": "getFoot",
      "outputs": [
        {
          "internalType": "string",
          "name": "",
          "type": "string"
        }
      ],
      "stateMutability": "view",
      "type": "function"
    },
    {
      "inputs": [
        {
          "internalType": "uint256",
          "name": "tokenId",
          "type": "uint256"
        }
      ],
      "name": "getHand",
      "outputs": [
        {
          "internalType": "string",
          "name": "",
          "type": "string"
        }
      ],
      "stateMutability": "view",
      "type": "function"
    },
    {
      "inputs": [
        {
          "internalType": "uint256",
          "name": "tokenId",
          "type": "uint256"
        }
      ],
      "name": "getHead",
      "outputs": [
        {
          "internalType": "string",
          "name": "",
          "type": "string"
        }
      ],
      "stateMutability": "view",
      "type": "function"
    },
    {
      "inputs": [
        {
          "internalType": "uint256",
          "name": "tokenId",
          "type": "uint256"
        }
      ],
      "name": "getNeck",
      "outputs": [
        {
          "internalType": "string",
          "name": "",
          "type": "string"
        }
      ],
      "stateMutability": "view",
      "type": "function"
    },
    {
      "inputs": [
        {
          "internalType": "uint256",
          "name": "tokenId",
          "type": "uint256"
        }
      ],
      "name": "getRing",
      "outputs": [
        {
          "internalType": "string",
          "name": "",
          "type": "string"
        }
      ],
      "stateMutability": "view",
      "type": "function"
    },
    {
      "inputs": [
        {
          "internalType": "uint256",
          "name": "tokenId",
          "type": "uint256"
        }
      ],
      "name": "getWaist",
      "outputs": [
        {
          "internalType": "string",
          "name": "",
          "type": "string"
        }
      ],
      "stateMutability": "view",
      "type": "function"
    },
    {
      "inputs": [
        {
          "internalType": "uint256",
          "name": "tokenId",
          "type": "uint256"
        }
      ],
      "name": "getWeapon",
      "outputs": [
        {
          "internalType": "string",
          "name": "",
          "type": "string"
        }
      ],
      "stateMutability": "view",
      "type": "function"
    },
    {
      "inputs": [
        {
          "internalType": "address",
          "name": "owner",
          "type": "address"
        },
        {
          "internalType": "address",
          "name": "operator",
          "type": "address"
        }
      ],
      "name": "isApprovedForAll",
      "outputs": [
        {
          "internalType": "bool",
          "name": "",
          "type": "bool"
        }
      ],
      "stateMutability": "view",
      "type": "function"
    },
    {
      "inputs": [],
      "name": "name",
      "outputs": [
        {
          "internalType": "string",
          "name": "",
          "type": "string"
        }
      ],
      "stateMutability": "view",
      "type": "function"
    },
    {
      "inputs": [],
      "name": "owner",
      "outputs": [
        {
          "internalType": "address",
          "name": "",
          "type": "address"
        }
      ],
      "stateMutability": "view",
      "type": "function"
    },
    {
      "inputs": [
        {
          "internalType": "uint256",
          "name": "tokenId",
          "type": "uint256"
        }
      ],
      "name": "ownerOf",
      "outputs": [
        {
          "internalType": "address",
          "name": "",
          "type": "address"
        }
      ],
      "stateMutability": "view",
      "type": "function"
    },
    {
      "inputs": [],
      "name": "renounceOwnership",
      "outputs": [],
      "stateMutability": "nonpayable",
      "type": "function"
    },
    {
      "inputs": [
        {
          "internalType": "address",
          "name": "from",
          "type": "address"
        },
        {
          "internalType": "address",
          "name": "to",
          "type": "address"
        },
        {
          "internalType": "uint256",
          "name": "tokenId",
          "type": "uint256"
        }
      ],
      "name": "safeTransferFrom",
      "outputs": [],
      "stateMutability": "nonpayable",
      "type": "function"
    },
    {
      "inputs": [
        {
          "internalType": "address",
          "name": "from",
          "type": "address"
        },
        {
          "internalType": "address",
          "name": "to",
          "type": "address"
        },
        {
          "internalType": "uint256",
          "name": "tokenId",
          "type": "uint256"
        },
        {
          "internalType": "bytes",
          "name": "_data",
          "type": "bytes"
        }
      ],
      "name": "safeTransferFrom",
      "outputs": [],
      "stateMutability": "nonpayable",
      "type": "function"
    },
    {
      "inputs": [
        {
          "internalType": "address",
          "name": "operator",
          "type": "address"
        },
        {
          "internalType": "bool",
          "name": "approved",
          "type": "bool"
        }
      ],
      "name": "setApprovalForAll",
      "outputs": [],
      "stateMutability": "nonpayable",
      "type": "function"
    },
    {
      "inputs": [
        {
          "internalType": "bytes4",
          "name": "interfaceId",
          "type": "bytes4"
        }
      ],
      "name": "supportsInterface",
      "outputs": [
        {
          "internalType": "bool",
          "name": "",
          "type": "bool"
        }
      ],
      "stateMutability": "view",
      "type": "function"
    },
    {
      "inputs": [],
      "name": "symbol",
      "outputs": [
        {
          "internalType": "string",
          "name": "",
          "type": "string"
        }
      ],
      "stateMutability": "view",
      "type": "function"
    },
    {
      "inputs": [
        {
          "internalType": "uint256",
          "name": "index",
          "type": "uint256"
        }
      ],
      "name": "tokenByIndex",
      "outputs": [
        {
          "internalType": "uint256",
          "name": "",
          "type": "uint256"
        }
      ],
      "stateMutability": "view",
      "type": "function"
    },
    {
      "inputs": [
        {
          "internalType": "address",
          "name": "owner",
          "type": "address"
        },
        {
          "internalType": "uint256",
          "name": "index",
          "type": "uint256"
        }
      ],
      "name": "tokenOfOwnerByIndex",
      "outputs": [
        {
          "internalType": "uint256",
          "name": "",
          "type": "uint256"
        }
      ],
      "stateMutability": "view",
      "type": "function"
    },
    {
      "inputs": [
        {
          "internalType": "uint256",
          "name": "tokenId",
          "type": "uint256"
        }
      ],
      "name": "tokenURI",
      "outputs": [
        {
          "internalType": "string",
          "name": "",
          "type": "string"
        }
      ],
      "stateMutability": "view",
      "type": "function"
    },
    {
      "inputs": [],
      "name": "totalSupply",
      "outputs": [
        {
          "internalType": "uint256",
          "name": "",
          "type": "uint256"
        }
      ],
      "stateMutability": "view",
      "type": "function"
    },
    {
      "inputs": [
        {
          "internalType": "address",
          "name": "from",
          "type": "address"
        },
        {
          "internalType": "address",
          "name": "to",
          "type": "address"
        },
        {
          "internalType": "uint256",
          "name": "tokenId",
          "type": "uint256"
        }
      ],
      "name": "transferFrom",
      "outputs": [],
      "stateMutability": "nonpayable",
      "type": "function"
    },
    {
      "inputs": [
        {
          "internalType": "address",
          "name": "newOwner",
          "type": "address"
        }
      ],
      "name": "transferOwnership",
      "outputs": [],
      "stateMutability": "nonpayable",
      "type": "function"
    }
  ],
  "bytecode": "0x60806040526040518061024001604052806040518060400160405280600981526020017f57617268616d6d6572000000000000000000000000000000000000000000000081525081526020016040518060400160405280600c81526020017f517561727465727374616666000000000000000000000000000000000000000081525081526020016040518060400160405280600481526020017f4d61756c0000000000000000000000000000000000000000000000000000000081525081526020016040518060400160405280600481526020017f4d6163650000000000000000000000000000000000000000000000000000000081525081526020016040518060400160405280600481526020017f436c75620000000000000000000000000000000000000000000000000000000081525081526020016040518060400160405280600681526020017f4b6174616e61000000000000000000000000000000000000000000000000000081525081526020016040518060400160405280600881526020017f46616c6368696f6e00000000000000000000000000000000000000000000000081525081526020016040518060400160405280600881526020017f5363696d6974617200000000000000000000000000000000000000000000000081525081526020016040518060400160405280600a81526020017f4c6f6e672053776f72640000000000000000000000000000000000000000000081525081526020016040518060400160405280600b81526020017f53686f72742053776f726400000000000000000000000000000000000000000081525081526020016040518060400160405280600a81526020017f47686f73742057616e640000000000000000000000000000000000000000000081525081526020016040518060400160405280600a81526020017f47726176652057616e640000000000000000000000000000000000000000000081525081526020016040518060400160405280600981526020017f426f6e652057616e64000000000000000000000000000000000000000000000081525081526020016040518060400160405280600481526020017f57616e640000000000000000000000000000000000000000000000000000000081525081526020016040518060400160405280600881526020017f4772696d6f69726500000000000000000000000000000000000000000000000081525081526020016040518060400160405280600981526020017f4368726f6e69636c65000000000000000000000000000000000000000000000081525081526020016040518060400160405280600481526020017f546f6d650000000000000000000000000000000000000000000000000000000081525081526020016040518060400160405280600481526020017f426f6f6b00000000000000000000000000000000000000000000000000000000815250815250600c90601262000446929190620031e1565b50604051806101e001604052806040518060400160405280600b81526020017f446976696e6520526f626500000000000000000000000000000000000000000081525081526020016040518060400160405280600981526020017f53696c6b20526f6265000000000000000000000000000000000000000000000081525081526020016040518060400160405280600a81526020017f4c696e656e20526f62650000000000000000000000000000000000000000000081525081526020016040518060400160405280600481526020017f526f62650000000000000000000000000000000000000000000000000000000081525081526020016040518060400160405280600581526020017f536869727400000000000000000000000000000000000000000000000000000081525081526020016040518060400160405280600a81526020017f44656d6f6e204875736b0000000000000000000000000000000000000000000081525081526020016040518060400160405280601081526020017f447261676f6e736b696e2041726d6f720000000000000000000000000000000081525081526020016040518060400160405280601581526020017f53747564646564204c6561746865722041726d6f72000000000000000000000081525081526020016040518060400160405280601281526020017f48617264204c6561746865722041726d6f72000000000000000000000000000081525081526020016040518060400160405280600d81526020017f4c6561746865722041726d6f720000000000000000000000000000000000000081525081526020016040518060400160405280600f81526020017f486f6c79204368657374706c617465000000000000000000000000000000000081525081526020016040518060400160405280601181526020017f4f726e617465204368657374706c61746500000000000000000000000000000081525081526020016040518060400160405280600a81526020017f506c617465204d61696c0000000000000000000000000000000000000000000081525081526020016040518060400160405280600a81526020017f436861696e204d61696c0000000000000000000000000000000000000000000081525081526020016040518060400160405280600981526020017f52696e67204d61696c0000000000000000000000000000000000000000000000815250815250600d90600f620007d892919062003241565b50604051806101e001604052806040518060400160405280600c81526020017f416e6369656e742048656c6d000000000000000000000000000000000000000081525081526020016040518060400160405280600b81526020017f4f726e6174652048656c6d00000000000000000000000000000000000000000081525081526020016040518060400160405280600a81526020017f47726561742048656c6d0000000000000000000000000000000000000000000081525081526020016040518060400160405280600981526020017f46756c6c2048656c6d000000000000000000000000000000000000000000000081525081526020016040518060400160405280600481526020017f48656c6d0000000000000000000000000000000000000000000000000000000081525081526020016040518060400160405280600b81526020017f44656d6f6e2043726f776e00000000000000000000000000000000000000000081525081526020016040518060400160405280600e81526020017f447261676f6e27732043726f776e00000000000000000000000000000000000081525081526020016040518060400160405280600781526020017f576172204361700000000000000000000000000000000000000000000000000081525081526020016040518060400160405280600b81526020017f4c6561746865722043617000000000000000000000000000000000000000000081525081526020016040518060400160405280600381526020017f436170000000000000000000000000000000000000000000000000000000000081525081526020016040518060400160405280600581526020017f43726f776e00000000000000000000000000000000000000000000000000000081525081526020016040518060400160405280600b81526020017f446976696e6520486f6f6400000000000000000000000000000000000000000081525081526020016040518060400160405280600981526020017f53696c6b20486f6f64000000000000000000000000000000000000000000000081525081526020016040518060400160405280600a81526020017f4c696e656e20486f6f640000000000000000000000000000000000000000000081525081526020016040518060400160405280600481526020017f486f6f6400000000000000000000000000000000000000000000000000000000815250815250600e90600f62000b6a92919062003241565b50604051806101e001604052806040518060400160405280600b81526020017f4f726e6174652042656c7400000000000000000000000000000000000000000081525081526020016040518060400160405280600881526020017f5761722042656c7400000000000000000000000000000000000000000000000081525081526020016040518060400160405280600b81526020017f506c617465642042656c7400000000000000000000000000000000000000000081525081526020016040518060400160405280600981526020017f4d6573682042656c74000000000000000000000000000000000000000000000081525081526020016040518060400160405280600a81526020017f48656176792042656c740000000000000000000000000000000000000000000081525081526020016040518060400160405280600e81526020017f44656d6f6e686964652042656c7400000000000000000000000000000000000081525081526020016040518060400160405280600f81526020017f447261676f6e736b696e2042656c74000000000000000000000000000000000081525081526020016040518060400160405280601481526020017f53747564646564204c6561746865722042656c7400000000000000000000000081525081526020016040518060400160405280601181526020017f48617264204c6561746865722042656c7400000000000000000000000000000081525081526020016040518060400160405280600c81526020017f4c6561746865722042656c74000000000000000000000000000000000000000081525081526020016040518060400160405280600f81526020017f42726967687473696c6b2053617368000000000000000000000000000000000081525081526020016040518060400160405280600981526020017f53696c6b2053617368000000000000000000000000000000000000000000000081525081526020016040518060400160405280600981526020017f576f6f6c2053617368000000000000000000000000000000000000000000000081525081526020016040518060400160405280600a81526020017f4c696e656e20536173680000000000000000000000000000000000000000000081525081526020016040518060400160405280600481526020017f5361736800000000000000000000000000000000000000000000000000000000815250815250600f90600f62000efc92919062003241565b50604051806101e001604052806040518060400160405280600c81526020017f486f6c792047726561766573000000000000000000000000000000000000000081525081526020016040518060400160405280600e81526020017f4f726e617465204772656176657300000000000000000000000000000000000081525081526020016040518060400160405280600781526020017f477265617665730000000000000000000000000000000000000000000000000081525081526020016040518060400160405280600b81526020017f436861696e20426f6f747300000000000000000000000000000000000000000081525081526020016040518060400160405280600b81526020017f486561767920426f6f747300000000000000000000000000000000000000000081525081526020016040518060400160405280600f81526020017f44656d6f6e6869646520426f6f7473000000000000000000000000000000000081525081526020016040518060400160405280601081526020017f447261676f6e736b696e20426f6f74730000000000000000000000000000000081525081526020016040518060400160405280601581526020017f53747564646564204c65617468657220426f6f7473000000000000000000000081525081526020016040518060400160405280601281526020017f48617264204c65617468657220426f6f7473000000000000000000000000000081525081526020016040518060400160405280600d81526020017f4c65617468657220426f6f74730000000000000000000000000000000000000081525081526020016040518060400160405280600f81526020017f446976696e6520536c697070657273000000000000000000000000000000000081525081526020016040518060400160405280600d81526020017f53696c6b20536c6970706572730000000000000000000000000000000000000081525081526020016040518060400160405280600a81526020017f576f6f6c2053686f65730000000000000000000000000000000000000000000081525081526020016040518060400160405280600b81526020017f4c696e656e2053686f657300000000000000000000000000000000000000000081525081526020016040518060400160405280600581526020017f53686f6573000000000000000000000000000000000000000000000000000000815250815250601090600f6200128e92919062003241565b50604051806101e001604052806040518060400160405280600e81526020017f486f6c79204761756e746c65747300000000000000000000000000000000000081525081526020016040518060400160405280601081526020017f4f726e617465204761756e746c6574730000000000000000000000000000000081525081526020016040518060400160405280600981526020017f4761756e746c657473000000000000000000000000000000000000000000000081525081526020016040518060400160405280600c81526020017f436861696e20476c6f766573000000000000000000000000000000000000000081525081526020016040518060400160405280600c81526020017f486561767920476c6f766573000000000000000000000000000000000000000081525081526020016040518060400160405280600d81526020017f44656d6f6e27732048616e64730000000000000000000000000000000000000081525081526020016040518060400160405280601181526020017f447261676f6e736b696e20476c6f76657300000000000000000000000000000081525081526020016040518060400160405280601681526020017f53747564646564204c65617468657220476c6f7665730000000000000000000081525081526020016040518060400160405280601381526020017f48617264204c65617468657220476c6f7665730000000000000000000000000081525081526020016040518060400160405280600e81526020017f4c65617468657220476c6f76657300000000000000000000000000000000000081525081526020016040518060400160405280600d81526020017f446976696e6520476c6f7665730000000000000000000000000000000000000081525081526020016040518060400160405280600b81526020017f53696c6b20476c6f76657300000000000000000000000000000000000000000081525081526020016040518060400160405280600b81526020017f576f6f6c20476c6f76657300000000000000000000000000000000000000000081525081526020016040518060400160405280600c81526020017f4c696e656e20476c6f766573000000000000000000000000000000000000000081525081526020016040518060400160405280600681526020017f476c6f7665730000000000000000000000000000000000000000000000000000815250815250601190600f6200162092919062003241565b5060405180606001604052806040518060400160405280600881526020017f4e65636b6c61636500000000000000000000000000000000000000000000000081525081526020016040518060400160405280600681526020017f416d756c6574000000000000000000000000000000000000000000000000000081525081526020016040518060400160405280600781526020017f50656e64616e74000000000000000000000000000000000000000000000000008152508152506012906003620016ed929190620032a1565b506040518060a001604052806040518060400160405280600981526020017f476f6c642052696e67000000000000000000000000000000000000000000000081525081526020016040518060400160405280600b81526020017f53696c7665722052696e6700000000000000000000000000000000000000000081525081526020016040518060400160405280600b81526020017f42726f6e7a652052696e6700000000000000000000000000000000000000000081525081526020016040518060400160405280600d81526020017f506c6174696e756d2052696e670000000000000000000000000000000000000081525081526020016040518060400160405280600d81526020017f546974616e69756d2052696e670000000000000000000000000000000000000081525081525060139060056200183092919062003301565b506040518061020001604052806040518060400160405280600881526020017f6f6620506f77657200000000000000000000000000000000000000000000000081525081526020016040518060400160405280600981526020017f6f66204769616e7473000000000000000000000000000000000000000000000081525081526020016040518060400160405280600981526020017f6f6620546974616e73000000000000000000000000000000000000000000000081525081526020016040518060400160405280600881526020017f6f6620536b696c6c00000000000000000000000000000000000000000000000081525081526020016040518060400160405280600d81526020017f6f662050657266656374696f6e0000000000000000000000000000000000000081525081526020016040518060400160405280600d81526020017f6f66204272696c6c69616e63650000000000000000000000000000000000000081525081526020016040518060400160405280601081526020017f6f6620456e6c69676874656e6d656e740000000000000000000000000000000081525081526020016040518060400160405280600d81526020017f6f662050726f74656374696f6e0000000000000000000000000000000000000081525081526020016040518060400160405280600881526020017f6f6620416e67657200000000000000000000000000000000000000000000000081525081526020016040518060400160405280600781526020017f6f6620526167650000000000000000000000000000000000000000000000000081525081526020016040518060400160405280600781526020017f6f6620467572790000000000000000000000000000000000000000000000000081525081526020016040518060400160405280600a81526020017f6f662056697472696f6c0000000000000000000000000000000000000000000081525081526020016040518060400160405280600a81526020017f6f662074686520466f780000000000000000000000000000000000000000000081525081526020016040518060400160405280600c81526020017f6f6620446574656374696f6e000000000000000000000000000000000000000081525081526020016040518060400160405280600d81526020017f6f66205265666c656374696f6e0000000000000000000000000000000000000081525081526020016040518060400160405280600c81526020017f6f6620746865205477696e730000000000000000000000000000000000000000815250815250601490601062001bfd92919062003361565b50604051806108a001604052806040518060400160405280600581526020017f41676f6e7900000000000000000000000000000000000000000000000000000081525081526020016040518060400160405280600a81526020017f41706f63616c797073650000000000000000000000000000000000000000000081525081526020016040518060400160405280600a81526020017f41726d61676564646f6e0000000000000000000000000000000000000000000081525081526020016040518060400160405280600581526020017f426561737400000000000000000000000000000000000000000000000000000081525081526020016040518060400160405280600881526020017f426568656d6f746800000000000000000000000000000000000000000000000081525081526020016040518060400160405280600681526020017f426c69676874000000000000000000000000000000000000000000000000000081525081526020016040518060400160405280600581526020017f426c6f6f6400000000000000000000000000000000000000000000000000000081525081526020016040518060400160405280600781526020017f4272616d626c650000000000000000000000000000000000000000000000000081525081526020016040518060400160405280600981526020017f4272696d73746f6e65000000000000000000000000000000000000000000000081525081526020016040518060400160405280600581526020017f42726f6f6400000000000000000000000000000000000000000000000000000081525081526020016040518060400160405280600781526020017f43617272696f6e0000000000000000000000000000000000000000000000000081525081526020016040518060400160405280600981526020017f43617461636c79736d000000000000000000000000000000000000000000000081525081526020016040518060400160405280600881526020017f4368696d6572696300000000000000000000000000000000000000000000000081525081526020016040518060400160405280600681526020017f436f72707365000000000000000000000000000000000000000000000000000081525081526020016040518060400160405280600a81526020017f436f7272757074696f6e0000000000000000000000000000000000000000000081525081526020016040518060400160405280600981526020017f44616d6e6174696f6e000000000000000000000000000000000000000000000081525081526020016040518060400160405280600581526020017f446561746800000000000000000000000000000000000000000000000000000081525081526020016040518060400160405280600581526020017f44656d6f6e00000000000000000000000000000000000000000000000000000081525081526020016040518060400160405280600481526020017f446972650000000000000000000000000000000000000000000000000000000081525081526020016040518060400160405280600681526020017f447261676f6e000000000000000000000000000000000000000000000000000081525081526020016040518060400160405280600581526020017f447265616400000000000000000000000000000000000000000000000000000081525081526020016040518060400160405280600481526020017f446f6f6d0000000000000000000000000000000000000000000000000000000081525081526020016040518060400160405280600481526020017f4475736b0000000000000000000000000000000000000000000000000000000081525081526020016040518060400160405280600581526020017f4561676c6500000000000000000000000000000000000000000000000000000081525081526020016040518060400160405280600881526020017f456d70797265616e00000000000000000000000000000000000000000000000081525081526020016040518060400160405280600481526020017f466174650000000000000000000000000000000000000000000000000000000081525081526020016040518060400160405280600381526020017f466f65000000000000000000000000000000000000000000000000000000000081525081526020016040518060400160405280600481526020017f47616c650000000000000000000000000000000000000000000000000000000081525081526020016040518060400160405280600581526020017f47686f756c00000000000000000000000000000000000000000000000000000081525081526020016040518060400160405280600581526020017f476c6f6f6d00000000000000000000000000000000000000000000000000000081525081526020016040518060400160405280600581526020017f476c79706800000000000000000000000000000000000000000000000000000081525081526020016040518060400160405280600581526020017f476f6c656d00000000000000000000000000000000000000000000000000000081525081526020016040518060400160405280600481526020017f4772696d0000000000000000000000000000000000000000000000000000000081525081526020016040518060400160405280600481526020017f486174650000000000000000000000000000000000000000000000000000000081525081526020016040518060400160405280600581526020017f4861766f6300000000000000000000000000000000000000000000000000000081525081526020016040518060400160405280600681526020017f486f6e6f7572000000000000000000000000000000000000000000000000000081525081526020016040518060400160405280600681526020017f486f72726f72000000000000000000000000000000000000000000000000000081525081526020016040518060400160405280600881526020017f4879706e6f74696300000000000000000000000000000000000000000000000081525081526020016040518060400160405280600681526020017f4b72616b656e000000000000000000000000000000000000000000000000000081525081526020016040518060400160405280600581526020017f4c6f61746800000000000000000000000000000000000000000000000000000081525081526020016040518060400160405280600981526020017f4d61656c7374726f6d000000000000000000000000000000000000000000000081525081526020016040518060400160405280600481526020017f4d696e640000000000000000000000000000000000000000000000000000000081525081526020016040518060400160405280600781526020017f4d697261636c650000000000000000000000000000000000000000000000000081525081526020016040518060400160405280600681526020017f4d6f72626964000000000000000000000000000000000000000000000000000081525081526020016040518060400160405280600881526020017f4f626c6976696f6e00000000000000000000000000000000000000000000000081525081526020016040518060400160405280600981526020017f4f6e736c6175676874000000000000000000000000000000000000000000000081525081526020016040518060400160405280600481526020017f5061696e0000000000000000000000000000000000000000000000000000000081525081526020016040518060400160405280600b81526020017f50616e64656d6f6e69756d00000000000000000000000000000000000000000081525081526020016040518060400160405280600781526020017f50686f656e69780000000000000000000000000000000000000000000000000081525081526020016040518060400160405280600681526020017f506c61677565000000000000000000000000000000000000000000000000000081525081526020016040518060400160405280600481526020017f526167650000000000000000000000000000000000000000000000000000000081525081526020016040518060400160405280600781526020017f526170747572650000000000000000000000000000000000000000000000000081525081526020016040518060400160405280600481526020017f52756e650000000000000000000000000000000000000000000000000000000081525081526020016040518060400160405280600581526020017f536b756c6c00000000000000000000000000000000000000000000000000000081525081526020016040518060400160405280600381526020017f536f6c000000000000000000000000000000000000000000000000000000000081525081526020016040518060400160405280600481526020017f536f756c0000000000000000000000000000000000000000000000000000000081525081526020016040518060400160405280600681526020017f536f72726f77000000000000000000000000000000000000000000000000000081525081526020016040518060400160405280600681526020017f537069726974000000000000000000000000000000000000000000000000000081525081526020016040518060400160405280600581526020017f53746f726d00000000000000000000000000000000000000000000000000000081525081526020016040518060400160405280600781526020017f54656d706573740000000000000000000000000000000000000000000000000081525081526020016040518060400160405280600781526020017f546f726d656e740000000000000000000000000000000000000000000000000081525081526020016040518060400160405280600981526020017f56656e6765616e6365000000000000000000000000000000000000000000000081525081526020016040518060400160405280600781526020017f566963746f72790000000000000000000000000000000000000000000000000081525081526020016040518060400160405280600581526020017f566970657200000000000000000000000000000000000000000000000000000081525081526020016040518060400160405280600681526020017f566f72746578000000000000000000000000000000000000000000000000000081525081526020016040518060400160405280600381526020017f576f65000000000000000000000000000000000000000000000000000000000081525081526020016040518060400160405280600581526020017f577261746800000000000000000000000000000000000000000000000000000081525081526020016040518060400160405280600781526020017f4c6967687427730000000000000000000000000000000000000000000000000081525081526020016040518060400160405280600a81526020017f5368696d6d6572696e6700000000000000000000000000000000000000000000815250815250601590604562002c01929190620033c1565b506040518061024001604052806040518060400160405280600481526020017f42616e650000000000000000000000000000000000000000000000000000000081525081526020016040518060400160405280600481526020017f526f6f740000000000000000000000000000000000000000000000000000000081525081526020016040518060400160405280600481526020017f426974650000000000000000000000000000000000000000000000000000000081525081526020016040518060400160405280600481526020017f536f6e670000000000000000000000000000000000000000000000000000000081525081526020016040518060400160405280600481526020017f526f61720000000000000000000000000000000000000000000000000000000081525081526020016040518060400160405280600581526020017f477261737000000000000000000000000000000000000000000000000000000081525081526020016040518060400160405280600a81526020017f496e737472756d656e740000000000000000000000000000000000000000000081525081526020016040518060400160405280600481526020017f476c6f770000000000000000000000000000000000000000000000000000000081525081526020016040518060400160405280600681526020017f42656e646572000000000000000000000000000000000000000000000000000081525081526020016040518060400160405280600681526020017f536861646f77000000000000000000000000000000000000000000000000000081525081526020016040518060400160405280600781526020017f576869737065720000000000000000000000000000000000000000000000000081525081526020016040518060400160405280600581526020017f53686f757400000000000000000000000000000000000000000000000000000081525081526020016040518060400160405280600581526020017f47726f776c00000000000000000000000000000000000000000000000000000081525081526020016040518060400160405280600481526020017f546561720000000000000000000000000000000000000000000000000000000081525081526020016040518060400160405280600481526020017f5065616b0000000000000000000000000000000000000000000000000000000081525081526020016040518060400160405280600481526020017f466f726d0000000000000000000000000000000000000000000000000000000081525081526020016040518060400160405280600381526020017f53756e000000000000000000000000000000000000000000000000000000000081525081526020016040518060400160405280600481526020017f4d6f6f6e00000000000000000000000000000000000000000000000000000000815250815250601690601262003044929190620031e1565b503480156200305257600080fd5b506040518060400160405280600981526020017f4d6f7265204c6f6f7400000000000000000000000000000000000000000000008152506040518060400160405280600581526020017f4d4c4f4f540000000000000000000000000000000000000000000000000000008152508160009081620030d0919062003728565b508060019081620030e2919062003728565b5050506001600a819055506200310d620031016200311360201b60201c565b6200311b60201b60201c565b6200380f565b600033905090565b6000600b60009054906101000a900473ffffffffffffffffffffffffffffffffffffffff16905081600b60006101000a81548173ffffffffffffffffffffffffffffffffffffffff021916908373ffffffffffffffffffffffffffffffffffffffff1602179055508173ffffffffffffffffffffffffffffffffffffffff168173ffffffffffffffffffffffffffffffffffffffff167f8be0079c531659141344cd1fd0a4f28419497f9722a3daafe3b4186f6b6457e060405160405180910390a35050565b8280548282559060005260206000209081019282156200322e579160200282015b828111156200322d5782518290816200321c919062003728565b509160200191906001019062003202565b5b5090506200323d919062003421565b5090565b8280548282559060005260206000209081019282156200328e579160200282015b828111156200328d5782518290816200327c919062003728565b509160200191906001019062003262565b5b5090506200329d919062003421565b5090565b828054828255906000526020600020908101928215620032ee579160200282015b82811115620032ed578251829081620032dc919062003728565b5091602001919060010190620032c2565b5b509050620032fd919062003421565b5090565b8280548282559060005260206000209081019282156200334e579160200282015b828111156200334d5782518290816200333c919062003728565b509160200191906001019062003322565b5b5090506200335d919062003421565b5090565b828054828255906000526020600020908101928215620033ae579160200282015b82811115620033ad5782518290816200339c919062003728565b509160200191906001019062003382565b5b509050620033bd919062003421565b5090565b8280548282559060005260206000209081019282156200340e579160200282015b828111156200340d578251829081620033fc919062003728565b5091602001919060010190620033e2565b5b5090506200341d919062003421565b5090565b5b808211156200344557600081816200343b919062003449565b5060010162003422565b5090565b508054620034579062003517565b6000825580601f106200346b57506200348c565b601f0160209004906000526020600020908101906200348b91906200348f565b5b50565b5b80821115620034aa57600081600090555060010162003490565b5090565b600081519050919050565b7f4e487b7100000000000000000000000000000000000000000000000000000000600052604160045260246000fd5b7f4e487b7100000000000000000000000000000000000000000000000000000000600052602260045260246000fd5b600060028204905060018216806200353057607f821691505b602082108103620035465762003545620034e8565b5b50919050565b60008190508160005260206000209050919050565b60006020601f8301049050919050565b600082821b905092915050565b600060088302620035b07fffffffffffffffffffffffffffffffffffffffffffffffffffffffffffffffff8262003571565b620035bc868362003571565b95508019841693508086168417925050509392505050565b6000819050919050565b6000819050919050565b60006200360962003603620035fd84620035d4565b620035de565b620035d4565b9050919050565b6000819050919050565b6200362583620035e8565b6200363d620036348262003610565b8484546200357e565b825550505050565b600090565b6200365462003645565b620036618184846200361a565b505050565b5b8181101562003689576200367d6000826200364a565b60018101905062003667565b5050565b601f821115620036d857620036a2816200354c565b620036ad8462003561565b81016020851015620036bd578190505b620036d5620036cc8562003561565b83018262003666565b50505b505050565b600082821c905092915050565b6000620036fd60001984600802620036dd565b1980831691505092915050565b6000620037188383620036ea565b9150826002028217905092915050565b6200373382620034ae565b67ffffffffffffffff8111156200374f576200374e620034b9565b5b6200375b825462003517565b620037688282856200368d565b600060209050601f831160018114620037a057600084156200378b578287015190505b6200379785826200370a565b86555062003807565b601f198416620037b0866200354c565b60005b82811015620037da57848901518255600182019150602085019450602081019050620037b3565b86831015620037fa5784890151620037f6601f891682620036ea565b8355505b6001600288020188555050505b505050505050565b615180806200381f6000396000f3fe608060405234801561001057600080fd5b50600436106101c45760003560e01c8063715018a6116100f9578063b88d4fde11610097578063d47f269e11610071578063d47f269e14610563578063e985e9c514610593578063ef68075a146105c3578063f2fde38b146105f3576101c4565b8063b88d4fde146104e7578063c08a5dd514610503578063c87b56dd14610533576101c4565b80639720c969116100d35780639720c9691461043b5780639bdc1b691461046b5780639e41b73f1461049b578063a22cb465146104cb576101c4565b8063715018a6146103f55780638da5cb5b146103ff57806395d89b411461041d576101c4565b80632f745c59116101665780634f6ccce7116101405780634f6ccce7146103355780636352211e1461036557806367209aa81461039557806370a08231146103c5576101c4565b80632f745c59146102cd578063379607f5146102fd57806342842e0e14610319576101c4565b8063095ea7b3116101a2578063095ea7b3146102475780630e99990d1461026357806318160ddd1461029357806323b872dd146102b1576101c4565b806301ffc9a7146101c957806306fdde03146101f9578063081812fc14610217575b600080fd5b6101e360048036038101906101de91906135aa565b61060f565b6040516101f091906135f2565b60405180910390f35b610201610689565b60405161020e919061369d565b60405180910390f35b610231600480360381019061022c91906136f5565b61071b565b60405161023e9190613763565b60405180910390f35b610261600480360381019061025c91906137aa565b6107a0565b005b61027d600480360381019061027891906136f5565b6108b7565b60405161028a919061369d565b60405180910390f35b61029b6109d1565b6040516102a891906137f9565b60405180910390f35b6102cb60048036038101906102c69190613814565b6109de565b005b6102e760048036038101906102e291906137aa565b610a3e565b6040516102f491906137f9565b60405180910390f35b610317600480360381019061031291906136f5565b610ae3565b005b610333600480360381019061032e9190613814565b610bb3565b005b61034f600480360381019061034a91906136f5565b610bd3565b60405161035c91906137f9565b60405180910390f35b61037f600480360381019061037a91906136f5565b610c44565b60405161038c9190613763565b60405180910390f35b6103af60048036038101906103aa91906136f5565b610cf5565b6040516103bc919061369d565b60405180910390f35b6103df60048036038101906103da9190613867565b610e0f565b6040516103ec91906137f9565b60405180910390f35b6103fd610ec6565b005b610407610f4e565b6040516104149190613763565b60405180910390f35b610425610f78565b604051610432919061369d565b60405180910390f35b610455600480360381019061045091906136f5565b61100a565b604051610462919061369d565b60405180910390f35b610485600480360381019061048091906136f5565b611124565b604051610492919061369d565b60405180910390f35b6104b560048036038101906104b091906136f5565b61123e565b6040516104c2919061369d565b60405180910390f35b6104e560048036038101906104e091906138c0565b611358565b005b61050160048036038101906104fc9190613a35565b6114d8565b005b61051d600480360381019061051891906136f5565b61153a565b60405161052a919061369d565b60405180910390f35b61054d600480360381019061054891906136f5565b611654565b60405161055a919061369d565b60405180910390f35b61057d600480360381019061057891906136f5565b611bea565b60405161058a919061369d565b60405180910390f35b6105ad60048036038101906105a89190613ab8565b611d04565b6040516105ba91906135f2565b60405180910390f35b6105dd60048036038101906105d891906136f5565b611d98565b6040516105ea919061369d565b60405180910390f35b61060d60048036038101906106089190613867565b611eb2565b005b60007f780e9d63000000000000000000000000000000000000000000000000000000007bffffffffffffffffffffffffffffffffffffffffffffffffffffffff1916827bffffffffffffffffffffffffffffffffffffffffffffffffffffffff19161480610682575061068182611fa9565b5b9050919050565b60606000805461069890613b27565b80601f01602080910402602001604051908101604052809291908181526020018280546106c490613b27565b80156107115780601f106106e657610100808354040283529160200191610711565b820191906000526020600020905b8154815290600101906020018083116106f457829003601f168201915b5050505050905090565b60006107268261208b565b610765576040517f08c379a000000000000000000000000000000000000000000000000000000000815260040161075c90613bca565b60405180910390fd5b6004600083815260200190815260200160002060009054906101000a900473ffffffffffffffffffffffffffffffffffffffff169050919050565b60006107ab82610c44565b90508073ffffffffffffffffffffffffffffffffffffffff168373ffffffffffffffffffffffffffffffffffffffff160361081b576040517f08c379a000000000000000000000000000000000000000000000000000000000815260040161081290613c5c565b60405180910390fd5b8073ffffffffffffffffffffffffffffffffffffffff1661083a6120f7565b73ffffffffffffffffffffffffffffffffffffffff1614806108695750610868816108636120f7565b611d04565b5b6108a8576040517f08c379a000000000000000000000000000000000000000000000000000000000815260040161089f90613cee565b60405180910390fd5b6108b283836120ff565b505050565b60606109ca826040518060400160405280600481526020017f464f4f54000000000000000000000000000000000000000000000000000000008152506010805480602002602001604051908101604052809291908181526020016000905b828210156109c157838290600052602060002001805461093490613b27565b80601f016020809104026020016040519081016040528092919081815260200182805461096090613b27565b80156109ad5780601f10610982576101008083540402835291602001916109ad565b820191906000526020600020905b81548152906001019060200180831161099057829003601f168201915b505050505081526020019060010190610915565b505050506121b8565b9050919050565b6000600880549050905090565b6109ef6109e96120f7565b82612503565b610a2e576040517f08c379a0000000000000000000000000000000000000000000000000000000008152600401610a2590613d80565b60405180910390fd5b610a398383836125e1565b505050565b6000610a4983610e0f565b8210610a8a576040517f08c379a0000000000000000000000000000000000000000000000000000000008152600401610a8190613e12565b60405180910390fd5b600660008473ffffffffffffffffffffffffffffffffffffffff1673ffffffffffffffffffffffffffffffffffffffff168152602001908152602001600020600083815260200190815260200160002054905092915050565b6002600a5403610b28576040517f08c379a0000000000000000000000000000000000000000000000000000000008152600401610b1f90613e7e565b60405180910390fd5b6002600a81905550611f4081118015610b5857506001600a43610b4b9190613efc565b610b559190613f2d565b81105b610b97576040517f08c379a0000000000000000000000000000000000000000000000000000000008152600401610b8e90613fad565b60405180910390fd5b610ba8610ba26120f7565b8261283c565b6001600a8190555050565b610bce838383604051806020016040528060008152506114d8565b505050565b6000610bdd6109d1565b8210610c1e576040517f08c379a0000000000000000000000000000000000000000000000000000000008152600401610c159061403f565b60405180910390fd5b60088281548110610c3257610c3161405f565b5b90600052602060002001549050919050565b6000806002600084815260200190815260200160002060009054906101000a900473ffffffffffffffffffffffffffffffffffffffff169050600073ffffffffffffffffffffffffffffffffffffffff168173ffffffffffffffffffffffffffffffffffffffff1603610cec576040517f08c379a0000000000000000000000000000000000000000000000000000000008152600401610ce390614100565b60405180910390fd5b80915050919050565b6060610e08826040518060400160405280600481526020017f4e45434b000000000000000000000000000000000000000000000000000000008152506012805480602002602001604051908101604052809291908181526020016000905b82821015610dff578382906000526020600020018054610d7290613b27565b80601f0160208091040260200160405190810160405280929190818152602001828054610d9e90613b27565b8015610deb5780601f10610dc057610100808354040283529160200191610deb565b820191906000526020600020905b815481529060010190602001808311610dce57829003601f168201915b505050505081526020019060010190610d53565b505050506121b8565b9050919050565b60008073ffffffffffffffffffffffffffffffffffffffff168273ffffffffffffffffffffffffffffffffffffffff1603610e7f576040517f08c379a0000000000000000000000000000000000000000000000000000000008152600401610e7690614192565b60405180910390fd5b600360008373ffffffffffffffffffffffffffffffffffffffff1673ffffffffffffffffffffffffffffffffffffffff168152602001908152602001600020549050919050565b610ece6120f7565b73ffffffffffffffffffffffffffffffffffffffff16610eec610f4e565b73ffffffffffffffffffffffffffffffffffffffff1614610f42576040517f08c379a0000000000000000000000000000000000000000000000000000000008152600401610f39906141fe565b60405180910390fd5b610f4c600061285a565b565b6000600b60009054906101000a900473ffffffffffffffffffffffffffffffffffffffff16905090565b606060018054610f8790613b27565b80601f0160208091040260200160405190810160405280929190818152602001828054610fb390613b27565b80156110005780601f10610fd557610100808354040283529160200191611000565b820191906000526020600020905b815481529060010190602001808311610fe357829003601f168201915b5050505050905090565b606061111d826040518060400160405280600481526020017f4845414400000000000000000000000000000000000000000000000000000000815250600e805480602002602001604051908101604052809291908181526020016000905b8282101561111457838290600052602060002001805461108790613b27565b80601f01602080910402602001604051908101604052809291908181526020018280546110b390613b27565b80156111005780601f106110d557610100808354040283529160200191611100565b820191906000526020600020905b8154815290600101906020018083116110e357829003601f168201915b505050505081526020019060010190611068565b505050506121b8565b9050919050565b6060611237826040518060400160405280600581526020017f5741495354000000000000000000000000000000000000000000000000000000815250600f805480602002602001604051908101604052809291908181526020016000905b8282101561122e5783829060005260206000200180546111a190613b27565b80601f01602080910402602001604051908101604052809291908181526020018280546111cd90613b27565b801561121a5780601f106111ef5761010080835404028352916020019161121a565b820191906000526020600020905b8154815290600101906020018083116111fd57829003601f168201915b505050505081526020019060010190611182565b505050506121b8565b9050919050565b6060611351826040518060400160405280600681526020017f574541504f4e0000000000000000000000000000000000000000000000000000815250600c805480602002602001604051908101604052809291908181526020016000905b828210156113485783829060005260206000200180546112bb90613b27565b80601f01602080910402602001604051908101604052809291908181526020018280546112e790613b27565b80156113345780601f1061130957610100808354040283529160200191611334565b820191906000526020600020905b81548152906001019060200180831161131757829003601f168201915b50505050508152602001906001019061129c565b505050506121b8565b9050919050565b6113606120f7565b73ffffffffffffffffffffffffffffffffffffffff168273ffffffffffffffffffffffffffffffffffffffff16036113cd576040517f08c379a00000000000000000000000000000000000000000000000000000000081526004016113c49061426a565b60405180910390fd5b80600560006113da6120f7565b73ffffffffffffffffffffffffffffffffffffffff1673ffffffffffffffffffffffffffffffffffffffff16815260200190815260200160002060008473ffffffffffffffffffffffffffffffffffffffff1673ffffffffffffffffffffffffffffffffffffffff16815260200190815260200160002060006101000a81548160ff0219169083151502179055508173ffffffffffffffffffffffffffffffffffffffff166114876120f7565b73ffffffffffffffffffffffffffffffffffffffff167f17307eab39ab6107e8899845ad3d59bd9653f200f220920489ca2b5937696c31836040516114cc91906135f2565b60405180910390a35050565b6114e96114e36120f7565b83612503565b611528576040517f08c379a000000000000000000000000000000000000000000000000000000000815260040161151f90613d80565b60405180910390fd5b61153484848484612920565b50505050565b606061164d826040518060400160405280600481526020017f52494e47000000000000000000000000000000000000000000000000000000008152506013805480602002602001604051908101604052809291908181526020016000905b828210156116445783829060005260206000200180546115b790613b27565b80601f01602080910402602001604051908101604052809291908181526020018280546115e390613b27565b80156116305780601f1061160557610100808354040283529160200191611630565b820191906000526020600020905b81548152906001019060200180831161161357829003601f168201915b505050505081526020019060010190611598565b505050506121b8565b9050919050565b606061165e6134ef565b60405180610120016040528060fd8152602001614fbd60fd91398160006011811061168c5761168b61405f565b5b602002018190525061169d8361123e565b816001601181106116b1576116b061405f565b5b602002018190525060405180606001604052806028815260200161512360289139816002601181106116e6576116e561405f565b5b60200201819052506116f783611d98565b8160036011811061170b5761170a61405f565b5b6020020181905250604051806060016040528060288152602001614ef260289139816004601181106117405761173f61405f565b5b60200201819052506117518361100a565b816005601181106117655761176461405f565b5b6020020181905250604051806060016040528060288152602001614f6c602891398160066011811061179a5761179961405f565b5b60200201819052506117ab83611124565b816007601181106117bf576117be61405f565b5b6020020181905250604051806060016040528060298152602001614f9460299139816008601181106117f4576117f361405f565b5b6020020181905250611805836108b7565b816009601181106118195761181861405f565b5b6020020181905250604051806060016040528060298152602001614f436029913981600a6011811061184e5761184d61405f565b5b602002018190525061185f83611bea565b81600b601181106118735761187261405f565b5b60200201819052506040518060600160405280602981526020016150ba6029913981600c601181106118a8576118a761405f565b5b60200201819052506118b983610cf5565b81600d601181106118cd576118cc61405f565b5b6020020181905250604051806060016040528060298152602001614f1a6029913981600e601181106119025761190161405f565b5b60200201819052506119138361153a565b81600f601181106119275761192661405f565b5b60200201819052506040518060400160405280600d81526020017f3c2f746578743e3c2f7376673e00000000000000000000000000000000000000815250816010601181106119795761197861405f565b5b60200201819052506000816000601181106119975761199661405f565b5b6020020151826001601181106119b0576119af61405f565b5b6020020151836002601181106119c9576119c861405f565b5b6020020151846003601181106119e2576119e161405f565b5b6020020151856004601181106119fb576119fa61405f565b5b602002015186600560118110611a1457611a1361405f565b5b602002015187600660118110611a2d57611a2c61405f565b5b602002015188600760118110611a4657611a4561405f565b5b602002015189600860118110611a5f57611a5e61405f565b5b6020020151604051602001611a7c999897969594939291906142c6565b60405160208183030381529060405290508082600960118110611aa257611aa161405f565b5b602002015183600a60118110611abb57611aba61405f565b5b602002015184600b60118110611ad457611ad361405f565b5b602002015185600c60118110611aed57611aec61405f565b5b602002015186600d60118110611b0657611b0561405f565b5b602002015187600e60118110611b1f57611b1e61405f565b5b602002015188600f60118110611b3857611b3761405f565b5b602002015189601060118110611b5157611b5061405f565b5b6020020151604051602001611b6e999897969594939291906142c6565b60405160208183030381529060405290506000611bbb611b8d8661297c565b611b9684612adc565b604051602001611ba79291906145aa565b604051602081830303815290604052612adc565b905080604051602001611bce919061463b565b6040516020818303038152906040529150819350505050919050565b6060611cfd826040518060400160405280600481526020017f48414e44000000000000000000000000000000000000000000000000000000008152506011805480602002602001604051908101604052809291908181526020016000905b82821015611cf4578382906000526020600020018054611c6790613b27565b80601f0160208091040260200160405190810160405280929190818152602001828054611c9390613b27565b8015611ce05780601f10611cb557610100808354040283529160200191611ce0565b820191906000526020600020905b815481529060010190602001808311611cc357829003601f168201915b505050505081526020019060010190611c48565b505050506121b8565b9050919050565b6000600560008473ffffffffffffffffffffffffffffffffffffffff1673ffffffffffffffffffffffffffffffffffffffff16815260200190815260200160002060008373ffffffffffffffffffffffffffffffffffffffff1673ffffffffffffffffffffffffffffffffffffffff16815260200190815260200160002060009054906101000a900460ff16905092915050565b6060611eab826040518060400160405280600581526020017f4348455354000000000000000000000000000000000000000000000000000000815250600d805480602002602001604051908101604052809291908181526020016000905b82821015611ea2578382906000526020600020018054611e1590613b27565b80601f0160208091040260200160405190810160405280929190818152602001828054611e4190613b27565b8015611e8e5780601f10611e6357610100808354040283529160200191611e8e565b820191906000526020600020905b815481529060010190602001808311611e7157829003601f168201915b505050505081526020019060010190611df6565b505050506121b8565b9050919050565b611eba6120f7565b73ffffffffffffffffffffffffffffffffffffffff16611ed8610f4e565b73ffffffffffffffffffffffffffffffffffffffff1614611f2e576040517f08c379a0000000000000000000000000000000000000000000000000000000008152600401611f25906141fe565b60405180910390fd5b600073ffffffffffffffffffffffffffffffffffffffff168173ffffffffffffffffffffffffffffffffffffffff1603611f9d576040517f08c379a0000000000000000000000000000000000000000000000000000000008152600401611f94906146cf565b60405180910390fd5b611fa68161285a565b50565b60007f80ac58cd000000000000000000000000000000000000000000000000000000007bffffffffffffffffffffffffffffffffffffffffffffffffffffffff1916827bffffffffffffffffffffffffffffffffffffffffffffffffffffffff1916148061207457507f5b5e139f000000000000000000000000000000000000000000000000000000007bffffffffffffffffffffffffffffffffffffffffffffffffffffffff1916827bffffffffffffffffffffffffffffffffffffffffffffffffffffffff1916145b80612084575061208382612c73565b5b9050919050565b60008073ffffffffffffffffffffffffffffffffffffffff166002600084815260200190815260200160002060009054906101000a900473ffffffffffffffffffffffffffffffffffffffff1673ffffffffffffffffffffffffffffffffffffffff1614159050919050565b600033905090565b816004600083815260200190815260200160002060006101000a81548173ffffffffffffffffffffffffffffffffffffffff021916908373ffffffffffffffffffffffffffffffffffffffff160217905550808273ffffffffffffffffffffffffffffffffffffffff1661217283610c44565b73ffffffffffffffffffffffffffffffffffffffff167f8c5be1e5ebec7d5bd14f71427d1e84f3dd0314c0f7b2291e5b200ac8c7c3b92560405160405180910390a45050565b606060006121ee846121c98761297c565b6040516020016121da9291906146ef565b604051602081830303815290604052612cdd565b90506000838451836122009190614713565b815181106122115761221061405f565b5b60200260200101519050600060158361222a9190614713565b9050600e811115612286578160148080549050856122489190614713565b815481106122595761225861405f565b5b90600052602060002001604051602001612274929190614828565b60405160208183030381529060405291505b601381106124f657612296613517565b60158080549050856122a89190614713565b815481106122b9576122b861405f565b5b9060005260206000200180546122ce90613b27565b80601f01602080910402602001604051908101604052809291908181526020018280546122fa90613b27565b80156123475780601f1061231c57610100808354040283529160200191612347565b820191906000526020600020905b81548152906001019060200180831161232a57829003601f168201915b5050505050816000600281106123605761235f61405f565b5b6020020181905250601680805490508561237a9190614713565b8154811061238b5761238a61405f565b5b9060005260206000200180546123a090613b27565b80601f01602080910402602001604051908101604052809291908181526020018280546123cc90613b27565b80156124195780601f106123ee57610100808354040283529160200191612419565b820191906000526020600020905b8154815290600101906020018083116123fc57829003601f168201915b5050505050816001600281106124325761243161405f565b5b60200201819052506013820361249d57806000600281106124565761245561405f565b5b60200201518160016002811061246f5761246e61405f565b5b602002015184604051602001612487939291906148ef565b60405160208183030381529060405292506124f4565b806000600281106124b1576124b061405f565b5b6020020151816001600281106124ca576124c961405f565b5b6020020151846040516020016124e29392919061498d565b60405160208183030381529060405292505b505b8193505050509392505050565b600061250e8261208b565b61254d576040517f08c379a000000000000000000000000000000000000000000000000000000000815260040161254490614a5c565b60405180910390fd5b600061255883610c44565b90508073ffffffffffffffffffffffffffffffffffffffff168473ffffffffffffffffffffffffffffffffffffffff1614806125c757508373ffffffffffffffffffffffffffffffffffffffff166125af8461071b565b73ffffffffffffffffffffffffffffffffffffffff16145b806125d857506125d78185611d04565b5b91505092915050565b8273ffffffffffffffffffffffffffffffffffffffff1661260182610c44565b73ffffffffffffffffffffffffffffffffffffffff1614612657576040517f08c379a000000000000000000000000000000000000000000000000000000000815260040161264e90614aee565b60405180910390fd5b600073ffffffffffffffffffffffffffffffffffffffff168273ffffffffffffffffffffffffffffffffffffffff16036126c6576040517f08c379a00000000000000000000000000000000000000000000000000000000081526004016126bd90614b80565b60405180910390fd5b6126d1838383612d10565b6126dc6000826120ff565b6001600360008573ffffffffffffffffffffffffffffffffffffffff1673ffffffffffffffffffffffffffffffffffffffff168152602001908152602001600020600082825461272c9190614ba0565b925050819055506001600360008473ffffffffffffffffffffffffffffffffffffffff1673ffffffffffffffffffffffffffffffffffffffff16815260200190815260200160002060008282546127839190613f2d565b92505081905550816002600083815260200190815260200160002060006101000a81548173ffffffffffffffffffffffffffffffffffffffff021916908373ffffffffffffffffffffffffffffffffffffffff160217905550808273ffffffffffffffffffffffffffffffffffffffff168473ffffffffffffffffffffffffffffffffffffffff167fddf252ad1be2c89b69c2b068fc378daa952ba7f163c4a11628f55a4df523b3ef60405160405180910390a4505050565b612856828260405180602001604052806000815250612e22565b5050565b6000600b60009054906101000a900473ffffffffffffffffffffffffffffffffffffffff16905081600b60006101000a81548173ffffffffffffffffffffffffffffffffffffffff021916908373ffffffffffffffffffffffffffffffffffffffff1602179055508173ffffffffffffffffffffffffffffffffffffffff168173ffffffffffffffffffffffffffffffffffffffff167f8be0079c531659141344cd1fd0a4f28419497f9722a3daafe3b4186f6b6457e060405160405180910390a35050565b61292b8484846125e1565b61293784848484612e7d565b612976576040517f08c379a000000000000000000000000000000000000000000000000000000000815260040161296d90614c46565b60405180910390fd5b50505050565b6060600082036129c3576040518060400160405280600181526020017f30000000000000000000000000000000000000000000000000000000000000008152509050612ad7565b600082905060005b600082146129f55780806129de90614c66565b915050600a826129ee9190613efc565b91506129cb565b60008167ffffffffffffffff811115612a1157612a1061390a565b5b6040519080825280601f01601f191660200182016040528015612a435781602001600182028036833780820191505090505b5090505b60008514612ad057600182612a5c9190614ba0565b9150600a85612a6b9190614713565b6030612a779190613f2d565b60f81b818381518110612a8d57612a8c61405f565b5b60200101907effffffffffffffffffffffffffffffffffffffffffffffffffffffffffffff1916908160001a905350600a85612ac99190613efc565b9450612a47565b8093505050505b919050565b606060008251905060008103612b045760405180602001604052806000815250915050612c6e565b60006003600283612b159190613f2d565b612b1f9190613efc565b6004612b2b9190614cae565b90506000602082612b3c9190613f2d565b67ffffffffffffffff811115612b5557612b5461390a565b5b6040519080825280601f01601f191660200182016040528015612b875781602001600182028036833780820191505090505b50905060006040518060600160405280604081526020016150e3604091399050600181016020830160005b86811015612c2b5760038101905062ffffff818a015116603f8160121c168401518060081b905060ff603f83600c1c1686015116810190508060081b905060ff603f8360061c1686015116810190508060081b905060ff603f831686015116810190508060e01b90508084526004840193505050612bb2565b506003860660018114612c455760028114612c5557612c60565b613d3d60f01b6002830352612c60565b603d60f81b60018303525b508484525050819450505050505b919050565b60007f01ffc9a7000000000000000000000000000000000000000000000000000000007bffffffffffffffffffffffffffffffffffffffffffffffffffffffff1916827bffffffffffffffffffffffffffffffffffffffffffffffffffffffff1916149050919050565b600081604051602001612cf09190614cf0565b6040516020818303038152906040528051906020012060001c9050919050565b612d1b838383613004565b600073ffffffffffffffffffffffffffffffffffffffff168373ffffffffffffffffffffffffffffffffffffffff1603612d5d57612d5881613009565b612d9c565b8173ffffffffffffffffffffffffffffffffffffffff168373ffffffffffffffffffffffffffffffffffffffff1614612d9b57612d9a8382613052565b5b5b600073ffffffffffffffffffffffffffffffffffffffff168273ffffffffffffffffffffffffffffffffffffffff1603612dde57612dd9816131bf565b612e1d565b8273ffffffffffffffffffffffffffffffffffffffff168273ffffffffffffffffffffffffffffffffffffffff1614612e1c57612e1b8282613290565b5b5b505050565b612e2c838361330f565b612e396000848484612e7d565b612e78576040517f08c379a0000000000000000000000000000000000000000000000000000000008152600401612e6f90614c46565b60405180910390fd5b505050565b6000612e9e8473ffffffffffffffffffffffffffffffffffffffff166134dc565b15612ff7578373ffffffffffffffffffffffffffffffffffffffff1663150b7a02612ec76120f7565b8786866040518563ffffffff1660e01b8152600401612ee99493929190614d5c565b6020604051808303816000875af1925050508015612f2557506040513d601f19601f82011682018060405250810190612f229190614dbd565b60015b612fa7573d8060008114612f55576040519150601f19603f3d011682016040523d82523d6000602084013e612f5a565b606091505b506000815103612f9f576040517f08c379a0000000000000000000000000000000000000000000000000000000008152600401612f9690614c46565b60405180910390fd5b805181602001fd5b63150b7a0260e01b7bffffffffffffffffffffffffffffffffffffffffffffffffffffffff1916817bffffffffffffffffffffffffffffffffffffffffffffffffffffffff191614915050612ffc565b600190505b949350505050565b505050565b6008805490506009600083815260200190815260200160002081905550600881908060018154018082558091505060019003906000526020600020016000909190919091505550565b6000600161305f84610e0f565b6130699190614ba0565b905060006007600084815260200190815260200160002054905081811461314e576000600660008673ffffffffffffffffffffffffffffffffffffffff1673ffffffffffffffffffffffffffffffffffffffff168152602001908152602001600020600084815260200190815260200160002054905080600660008773ffffffffffffffffffffffffffffffffffffffff1673ffffffffffffffffffffffffffffffffffffffff168152602001908152602001600020600084815260200190815260200160002081905550816007600083815260200190815260200160002081905550505b6007600084815260200190815260200160002060009055600660008573ffffffffffffffffffffffffffffffffffffffff1673ffffffffffffffffffffffffffffffffffffffff16815260200190815260200160002060008381526020019081526020016000206000905550505050565b600060016008805490506131d39190614ba0565b90506000600960008481526020019081526020016000205490506000600883815481106132035761320261405f565b5b9060005260206000200154905080600883815481106132255761322461405f565b5b90600052602060002001819055508160096000838152602001908152602001600020819055506009600085815260200190815260200160002060009055600880548061327457613273614dea565b5b6001900381819060005260206000200160009055905550505050565b600061329b83610e0f565b905081600660008573ffffffffffffffffffffffffffffffffffffffff1673ffffffffffffffffffffffffffffffffffffffff168152602001908152602001600020600083815260200190815260200160002081905550806007600084815260200190815260200160002081905550505050565b600073ffffffffffffffffffffffffffffffffffffffff168273ffffffffffffffffffffffffffffffffffffffff160361337e576040517f08c379a000000000000000000000000000000000000000000000000000000000815260040161337590614e65565b60405180910390fd5b6133878161208b565b156133c7576040517f08c379a00000000000000000000000000000000000000000000000000000000081526004016133be90614ed1565b60405180910390fd5b6133d360008383612d10565b6001600360008473ffffffffffffffffffffffffffffffffffffffff1673ffffffffffffffffffffffffffffffffffffffff16815260200190815260200160002060008282546134239190613f2d565b92505081905550816002600083815260200190815260200160002060006101000a81548173ffffffffffffffffffffffffffffffffffffffff021916908373ffffffffffffffffffffffffffffffffffffffff160217905550808273ffffffffffffffffffffffffffffffffffffffff16600073ffffffffffffffffffffffffffffffffffffffff167fddf252ad1be2c89b69c2b068fc378daa952ba7f163c4a11628f55a4df523b3ef60405160405180910390a45050565b600080823b905060008111915050919050565b6040518061022001604052806011905b60608152602001906001900390816134ff5790505090565b60405180604001604052806002905b60608152602001906001900390816135265790505090565b6000604051905090565b600080fd5b600080fd5b60007fffffffff0000000000000000000000000000000000000000000000000000000082169050919050565b61358781613552565b811461359257600080fd5b50565b6000813590506135a48161357e565b92915050565b6000602082840312156135c0576135bf613548565b5b60006135ce84828501613595565b91505092915050565b60008115159050919050565b6135ec816135d7565b82525050565b600060208201905061360760008301846135e3565b92915050565b600081519050919050565b600082825260208201905092915050565b60005b8381101561364757808201518184015260208101905061362c565b60008484015250505050565b6000601f19601f8301169050919050565b600061366f8261360d565b6136798185613618565b9350613689818560208601613629565b61369281613653565b840191505092915050565b600060208201905081810360008301526136b78184613664565b905092915050565b6000819050919050565b6136d2816136bf565b81146136dd57600080fd5b50565b6000813590506136ef816136c9565b92915050565b60006020828403121561370b5761370a613548565b5b6000613719848285016136e0565b91505092915050565b600073ffffffffffffffffffffffffffffffffffffffff82169050919050565b600061374d82613722565b9050919050565b61375d81613742565b82525050565b60006020820190506137786000830184613754565b92915050565b61378781613742565b811461379257600080fd5b50565b6000813590506137a48161377e565b92915050565b600080604083850312156137c1576137c0613548565b5b60006137cf85828601613795565b92505060206137e0858286016136e0565b9150509250929050565b6137f3816136bf565b82525050565b600060208201905061380e60008301846137ea565b92915050565b60008060006060848603121561382d5761382c613548565b5b600061383b86828701613795565b935050602061384c86828701613795565b925050604061385d868287016136e0565b9150509250925092565b60006020828403121561387d5761387c613548565b5b600061388b84828501613795565b91505092915050565b61389d816135d7565b81146138a857600080fd5b50565b6000813590506138ba81613894565b92915050565b600080604083850312156138d7576138d6613548565b5b60006138e585828601613795565b92505060206138f6858286016138ab565b9150509250929050565b600080fd5b600080fd5b7f4e487b7100000000000000000000000000000000000000000000000000000000600052604160045260246000fd5b61394282613653565b810181811067ffffffffffffffff821117156139615761396061390a565b5b80604052505050565b600061397461353e565b90506139808282613939565b919050565b600067ffffffffffffffff8211156139a05761399f61390a565b5b6139a982613653565b9050602081019050919050565b82818337600083830152505050565b60006139d86139d384613985565b61396a565b9050828152602081018484840111156139f4576139f3613905565b5b6139ff8482856139b6565b509392505050565b600082601f830112613a1c57613a1b613900565b5b8135613a2c8482602086016139c5565b91505092915050565b60008060008060808587031215613a4f57613a4e613548565b5b6000613a5d87828801613795565b9450506020613a6e87828801613795565b9350506040613a7f878288016136e0565b925050606085013567ffffffffffffffff811115613aa057613a9f61354d565b5b613aac87828801613a07565b91505092959194509250565b60008060408385031215613acf57613ace613548565b5b6000613add85828601613795565b9250506020613aee85828601613795565b9150509250929050565b7f4e487b7100000000000000000000000000000000000000000000000000000000600052602260045260246000fd5b60006002820490506001821680613b3f57607f821691505b602082108103613b5257613b51613af8565b5b50919050565b7f4552433732313a20617070726f76656420717565727920666f72206e6f6e657860008201527f697374656e7420746f6b656e0000000000000000000000000000000000000000602082015250565b6000613bb4602c83613618565b9150613bbf82613b58565b604082019050919050565b60006020820190508181036000830152613be381613ba7565b9050919050565b7f4552433732313a20617070726f76616c20746f2063757272656e74206f776e6560008201527f7200000000000000000000000000000000000000000000000000000000000000602082015250565b6000613c46602183613618565b9150613c5182613bea565b604082019050919050565b60006020820190508181036000830152613c7581613c39565b9050919050565b7f4552433732313a20617070726f76652063616c6c6572206973206e6f74206f7760008201527f6e6572206e6f7220617070726f76656420666f7220616c6c0000000000000000602082015250565b6000613cd8603883613618565b9150613ce382613c7c565b604082019050919050565b60006020820190508181036000830152613d0781613ccb565b9050919050565b7f4552433732313a207472616e736665722063616c6c6572206973206e6f74206f60008201527f776e6572206e6f7220617070726f766564000000000000000000000000000000602082015250565b6000613d6a603183613618565b9150613d7582613d0e565b604082019050919050565b60006020820190508181036000830152613d9981613d5d565b9050919050565b7f455243373231456e756d657261626c653a206f776e657220696e646578206f7560008201527f74206f6620626f756e6473000000000000000000000000000000000000000000602082015250565b6000613dfc602b83613618565b9150613e0782613da0565b604082019050919050565b60006020820190508181036000830152613e2b81613def565b9050919050565b7f5265656e7472616e637947756172643a207265656e7472616e742063616c6c00600082015250565b6000613e68601f83613618565b9150613e7382613e32565b602082019050919050565b60006020820190508181036000830152613e9781613e5b565b9050919050565b7f4e487b7100000000000000000000000000000000000000000000000000000000600052601260045260246000fd5b7f4e487b7100000000000000000000000000000000000000000000000000000000600052601160045260246000fd5b6000613f07826136bf565b9150613f12836136bf565b925082613f2257613f21613e9e565b5b828204905092915050565b6000613f38826136bf565b9150613f43836136bf565b9250828201905080821115613f5b57613f5a613ecd565b5b92915050565b7f546f6b656e20494420696e76616c696400000000000000000000000000000000600082015250565b6000613f97601083613618565b9150613fa282613f61565b602082019050919050565b60006020820190508181036000830152613fc681613f8a565b9050919050565b7f455243373231456e756d657261626c653a20676c6f62616c20696e646578206f60008201527f7574206f6620626f756e64730000000000000000000000000000000000000000602082015250565b6000614029602c83613618565b915061403482613fcd565b604082019050919050565b600060208201905081810360008301526140588161401c565b9050919050565b7f4e487b7100000000000000000000000000000000000000000000000000000000600052603260045260246000fd5b7f4552433732313a206f776e657220717565727920666f72206e6f6e657869737460008201527f656e7420746f6b656e0000000000000000000000000000000000000000000000602082015250565b60006140ea602983613618565b91506140f58261408e565b604082019050919050565b60006020820190508181036000830152614119816140dd565b9050919050565b7f4552433732313a2062616c616e636520717565727920666f7220746865207a6560008201527f726f206164647265737300000000000000000000000000000000000000000000602082015250565b600061417c602a83613618565b915061418782614120565b604082019050919050565b600060208201905081810360008301526141ab8161416f565b9050919050565b7f4f776e61626c653a2063616c6c6572206973206e6f7420746865206f776e6572600082015250565b60006141e8602083613618565b91506141f3826141b2565b602082019050919050565b60006020820190508181036000830152614217816141db565b9050919050565b7f4552433732313a20617070726f766520746f2063616c6c657200000000000000600082015250565b6000614254601983613618565b915061425f8261421e565b602082019050919050565b6000602082019050818103600083015261428381614247565b9050919050565b600081905092915050565b60006142a08261360d565b6142aa818561428a565b93506142ba818560208601613629565b80840191505092915050565b60006142d2828c614295565b91506142de828b614295565b91506142ea828a614295565b91506142f68289614295565b91506143028288614295565b915061430e8287614295565b915061431a8286614295565b91506143268285614295565b91506143328284614295565b91508190509a9950505050505050505050565b7f7b226e616d65223a202242616720230000000000000000000000000000000000600082015250565b600061437b600f8361428a565b915061438682614345565b600f82019050919050565b7f222c20226465736372697074696f6e223a20224d6f7265204c6f6f742069732060008201527f6164646974696f6e616c2072616e646f6d697a656420616476656e747572657260208201527f20676561722067656e65726174656420616e642073746f726564206f6e20636860408201527f61696e2e204d6178696d756d20737570706c792069732064796e616d69632c2060608201527f696e6372656173696e6720617420312f31307468206f6620457468657265756d60808201527f277320626c6f636b20726174652e2053746174732c20696d616765732c20616e60a08201527f64206f746865722066756e6374696f6e616c6974792061726520696e74656e7460c08201527f696f6e616c6c79206f6d697474656420666f72206f746865727320746f20696e60e08201527f746572707265742e204665656c206672656520746f20757365204d6f7265204c6101008201527f6f6f7420696e20616e792077617920796f752077616e742e222c2022696d61676101208201527f65223a2022646174613a696d6167652f7376672b786d6c3b6261736536342c0061014082015250565b600061454761015f8361428a565b915061455282614391565b61015f82019050919050565b7f227d000000000000000000000000000000000000000000000000000000000000600082015250565b600061459460028361428a565b915061459f8261455e565b600282019050919050565b60006145b58261436e565b91506145c18285614295565b91506145cc82614539565b91506145d88284614295565b91506145e382614587565b91508190509392505050565b7f646174613a6170706c69636174696f6e2f6a736f6e3b6261736536342c000000600082015250565b6000614625601d8361428a565b9150614630826145ef565b601d82019050919050565b600061464682614618565b91506146528284614295565b915081905092915050565b7f4f776e61626c653a206e6577206f776e657220697320746865207a65726f206160008201527f6464726573730000000000000000000000000000000000000000000000000000602082015250565b60006146b9602683613618565b91506146c48261465d565b604082019050919050565b600060208201905081810360008301526146e8816146ac565b9050919050565b60006146fb8285614295565b91506147078284614295565b91508190509392505050565b600061471e826136bf565b9150614729836136bf565b92508261473957614738613e9e565b5b828206905092915050565b7f2000000000000000000000000000000000000000000000000000000000000000600082015250565b600061477a60018361428a565b915061478582614744565b600182019050919050565b60008190508160005260206000209050919050565b600081546147b281613b27565b6147bc818661428a565b945060018216600081146147d757600181146147ec5761481f565b60ff198316865281151582028601935061481f565b6147f585614790565b60005b83811015614817578154818901526001820191506020810190506147f8565b838801955050505b50505092915050565b60006148348285614295565b915061483f8261476d565b915061484b82846147a5565b91508190509392505050565b7f2200000000000000000000000000000000000000000000000000000000000000600082015250565b600061488d60018361428a565b915061489882614857565b600182019050919050565b7f2220000000000000000000000000000000000000000000000000000000000000600082015250565b60006148d960028361428a565b91506148e4826148a3565b600282019050919050565b60006148fa82614880565b91506149068286614295565b91506149118261476d565b915061491d8285614295565b9150614928826148cc565b91506149348284614295565b9150819050949350505050565b7f202b310000000000000000000000000000000000000000000000000000000000600082015250565b600061497760038361428a565b915061498282614941565b600382019050919050565b600061499882614880565b91506149a48286614295565b91506149af8261476d565b91506149bb8285614295565b91506149c6826148cc565b91506149d28284614295565b91506149dd8261496a565b9150819050949350505050565b7f4552433732313a206f70657261746f7220717565727920666f72206e6f6e657860008201527f697374656e7420746f6b656e0000000000000000000000000000000000000000602082015250565b6000614a46602c83613618565b9150614a51826149ea565b604082019050919050565b60006020820190508181036000830152614a7581614a39565b9050919050565b7f4552433732313a207472616e73666572206f6620746f6b656e2074686174206960008201527f73206e6f74206f776e0000000000000000000000000000000000000000000000602082015250565b6000614ad8602983613618565b9150614ae382614a7c565b604082019050919050565b60006020820190508181036000830152614b0781614acb565b9050919050565b7f4552433732313a207472616e7366657220746f20746865207a65726f2061646460008201527f7265737300000000000000000000000000000000000000000000000000000000602082015250565b6000614b6a602483613618565b9150614b7582614b0e565b604082019050919050565b60006020820190508181036000830152614b9981614b5d565b9050919050565b6000614bab826136bf565b9150614bb6836136bf565b9250828203905081811115614bce57614bcd613ecd565b5b92915050565b7f4552433732313a207472616e7366657220746f206e6f6e20455243373231526560008201527f63656976657220696d706c656d656e7465720000000000000000000000000000602082015250565b6000614c30603283613618565b9150614c3b82614bd4565b604082019050919050565b60006020820190508181036000830152614c5f81614c23565b9050919050565b6000614c71826136bf565b91507fffffffffffffffffffffffffffffffffffffffffffffffffffffffffffffffff8203614ca357614ca2613ecd565b5b600182019050919050565b6000614cb9826136bf565b9150614cc4836136bf565b9250828202614cd2816136bf565b91508282048414831517614ce957614ce8613ecd565b5b5092915050565b6000614cfc8284614295565b915081905092915050565b600081519050919050565b600082825260208201905092915050565b6000614d2e82614d07565b614d388185614d12565b9350614d48818560208601613629565b614d5181613653565b840191505092915050565b6000608082019050614d716000830187613754565b614d7e6020830186613754565b614d8b60408301856137ea565b8181036060830152614d9d8184614d23565b905095945050505050565b600081519050614db78161357e565b92915050565b600060208284031215614dd357614dd2613548565b5b6000614de184828501614da8565b91505092915050565b7f4e487b7100000000000000000000000000000000000000000000000000000000600052603160045260246000fd5b7f4552433732313a206d696e7420746f20746865207a65726f2061646472657373600082015250565b6000614e4f602083613618565b9150614e5a82614e19565b602082019050919050565b60006020820190508181036000830152614e7e81614e42565b9050919050565b7f4552433732313a20746f6b656e20616c7265616479206d696e74656400000000600082015250565b6000614ebb601c83613618565b9150614ec682614e85565b602082019050919050565b60006020820190508181036000830152614eea81614eae565b905091905056fe3c2f746578743e3c7465787420783d2231302220793d2236302220636c6173733d2262617365223e3c2f746578743e3c7465787420783d2231302220793d223136302220636c6173733d2262617365223e3c2f746578743e3c7465787420783d2231302220793d223132302220636c6173733d2262617365223e3c2f746578743e3c7465787420783d2231302220793d2238302220636c6173733d2262617365223e3c2f746578743e3c7465787420783d2231302220793d223130302220636c6173733d2262617365223e3c73766720786d6c6e733d22687474703a2f2f7777772e77332e6f72672f323030302f73766722207072657365727665417370656374526174696f3d22784d696e594d696e206d656574222076696577426f783d223020302033353020333530223e3c7374796c653e2e62617365207b2066696c6c3a2077686974653b20666f6e742d66616d696c793a2073657269663b20666f6e742d73697a653a20313470783b207d3c2f7374796c653e3c726563742077696474683d223130302522206865696768743d2231303025222066696c6c3d22626c61636b22202f3e3c7465787420783d2231302220793d2232302220636c6173733d2262617365223e3c2f746578743e3c7465787420783d2231302220793d223134302220636c6173733d2262617365223e4142434445464748494a4b4c4d4e4f505152535455565758595a6162636465666768696a6b6c6d6e6f707172737475767778797a303132333435363738392b2f3c2f746578743e3c7465787420783d2231302220793d2234302220636c6173733d2262617365223ea2646970667358221220deec3c691b48c90ee62ba54c1101f408b8cadf4f356f860b251b49138505050864736f6c63430008110033",
  "linkReferences": {},
  "deployedLinkReferences": {}
}